:100000000C9462030C94211A0C944E1A0C948A03DB
:100010000C948A030C948A030C948A030C948A032C
:100020000C948A030C948A030C948A030C943C1558
:100030000C948A030C948A030C948A030C948A030C
:100040000C9459190C948A030C94301B0C94621B69
:100050000C948A030C948A030C948A030C948A03EC
:100060000C942C180C948A0307634236B79BD8A7CC
:100070001A39685618AEBAAB558C1D3CB7CC5763CD
:10008000BD6DEDFD753EF6177231BF000000803F7B
:1000900008000000BE922449123EABAAAA2ABECD97
:1000A000CCCC4C3E00000080BEABAAAAAA3E000009
:1000B0000000BF000000803F000000000008417801
:1000C000D3BB4387D1133D190E3CC3BD4282AD2B38
:1000D0003E68EC8276BED98FE1A93E4C80EFFFBE30
:1000E00001C4FF7F3F000000000000000000003E50
:1000F0005B4F5B3E3E6B4F6B3E1C3E7C3E1C183C98
:100100007E3C181C577D571C1C5E7F5E1C00183CF3
:100110001800FFE7C3E7FF0018241800FFE7DBE73C
:10012000FF30483A060E2629792926407F05050723
:10013000407F05253F5A3CE73C5A7F3E1C1C08087F
:100140001C1C3E7F14227F22145F5F005F5F060944
:100150007F017F006689956A606060606094A2FF9D
:10016000A29408047E040810207E201008082A1C8F
:1001700008081C2A08081E101010100C1E0C1E0C5B
:1001800030383E3830060E3E0E06000000000000FB
:10019000005F00000007000700147F147F14242A6A
:1001A0007F2A12231308646236495620500008073C
:1001B0000300001C2241000041221C002A1C7F1C5D
:1001C0002A08083E0808008070300008080808085F
:1001D000000060600020100804023E5149453E00C6
:1001E000427F400072494949462141494D33181424
:1001F000127F1027454545393C4A49493141211173
:1002000009073649494936464949291E0000140064
:100210000000403400000008142241141414141487
:10022000004122140802015909063E415D594E7CE5
:100230001211127C7F494949363E414141227F419A
:1002400041413E7F494949417F090909013E4141F8
:1002500051737F0808087F00417F41002040413FE3
:10026000017F081422417F404040407F021C027FF2
:100270007F0408107F3E4141413E7F090909063E47
:100280004151215E7F091929462649494932030116
:100290007F01033F4040403F1F2040201F3F403828
:1002A000403F631408146303047804036159494D03
:1002B00043007F4141410204081020004141417F39
:1002C00004020102044040404040000307080020AF
:1002D000545478407F2844443838444444283844AF
:1002E00044287F385454541800087E090218A4A4E6
:1002F0009C787F0804047800447D40002040403D05
:10030000007F1028440000417F40007C047804787E
:100310007C080404783844444438FC182424181811
:10032000242418FC7C08040408485454542404046D
:100330003F44243C4040207C1C2040201C3C40305A
:10034000403C44281028444C9090907C4464544C89
:1003500044000836410000007700000041360800E4
:1003600002010204023C2623263C1EA1A161123A8E
:100370004040207A385454555921555579412254DA
:10038000547842215554784020545579400C1E52DF
:100390007212395555555939545454593955545484
:1003A000580000457C410002457D420001457C40EB
:1003B0007D1211127DF0282528F07C54554500202F
:1003C00054547C547C0A097F4932494949323A44A1
:1003D00044443A324A4848303A4141217A3A42400C
:1003E0002078009DA0A07D3D4242423D3D404040DE
:1003F0003D3C24FF2424487E4943662B2FFC2F2BB1
:10040000FF0929F620C0887E090320545479410051
:1004100000447D413048484A32384040227A007AD0
:100420000A0A727D0D19317D2629292F28262929AE
:10043000292630484D4020380808080808080808D0
:10044000382F10C8ACBA2F102834FA00007B0000F7
:1004500008142A142222142A1408AA005500AAAA51
:1004600055AA55AA000000FF00101010FF00141438
:1004700014FF001010FF00FF1010F010F0141414FF
:10048000FC001414F700FF0000FF00FF1414F40434
:10049000FC141417101F10101F101F1414141F0029
:1004A000101010F0000000001F101010101F10108E
:1004B0001010F010000000FF10101010101010109D
:1004C00010FF10000000FF140000FF00FF00001FDD
:1004D00010170000FC04F414141710171414F4047B
:1004E000F40000FF00F714141414141414F700F7A8
:1004F000141414171410101F101F141414F41410D3
:1005000010F010F000001F101F0000001F1400006A
:1005100000FC140000F010F01010FF10FF14141471
:10052000FF141010101F00000000F010FFFFFFFF6D
:10053000FFF0F0F0F0F0FFFFFF0000000000FFFF11
:100540000F0F0F0F0F3844443844FC4A4A4A347E98
:1005500002020606027E027E026355494163384468
:10056000443C04407E201E2006027E020299A5E73C
:10057000A5991C2A492A1C4C7201724C304A4D4DD7
:10058000303048784830BC625A463D3E49494900BF
:100590007E0101017E2A2A2A2A2A44445F444440DB
:1005A000514A444040444A51400000FF0103E0806A
:1005B000FF000008086B6B083612362436060F0958
:1005C0000F06000018180000001010003040FF0156
:1005D00001001F01011E00191D1712003C3C3C3C8C
:1005E00000000000004D696E20553A20004D6178F2
:1005F00020563A20004D617820543A20005374610F
:100600007475730056434300566F6C7461676500E0
:1006100054656D70002E002E0054656D70004252BE
:10062000414B4500250073636F6F746572004A4D3E
:100630000057454C434F4D4520544F0050682047CC
:1006400061696E3A00536574204761696E3A0053E0
:100650006574206578706F3A0020430053657420FC
:100660006D617820543A0053657475700000000085
:100670000800020100000304070000000000000061
:10068000000102040810204080010204081020012B
:1006900002040810200404040404040404020202F6
:1006A00002020203030303030300000000250028E5
:1006B000002B0000000000240027002A000026155F
:1006C0008E17881B11241FBECFEFD8E0DEBFCDBF31
:1006D00011E0A0E0B1E0E8EDF7E402C005900D9272
:1006E000AC3AB107D9F727E0ACEAB1E001C01D92FE
:1006F000AE35B207E1F716E0C4ECD6E004C02297AD
:10070000FE010E94BC23CE3BD107C9F70E94F10B2A
:100710000C94EA230C9400002F923F924F925F9228
:100720006F927F928F929F92AF92BF92CF92DF9201
:10073000EF92FF920F931F93CF93DF9300D000D0DF
:10074000CDB7DEB74C017C836B836A015901C801C8
:100750008701AC014C195D0957FF03C051954195C4
:10076000510995016B817C81261B370B37FF03C034
:1007700031952195310922242394312C24173507F2
:1007800014F0212C312C2114310459F03A2D2B2D49
:100790005C01832F922F3B812C81DC82CB82C32E84
:1007A000D22EAB81BC81AA16BB065CF43C2D2D2D4C
:1007B0006C01832F922F3B812C81BC82AB82A32EB4
:1007C000B22E2501EB81FC814E1A5F0A3C016C18A8
:1007D0007D0877FE03C0719461947108720157FE21
:1007E00003C0FFEFEF1AFF0AF594E794C816D90685
:1007F0002CF421E030E03A83298324C06FEF7FEFAF
:100800007A8369831FC0D401ED91FC910480F58146
:10081000E02D980121143104D9F04B815C81B6019F
:10082000C4010995E618F708F7FE06C0E981FA81C8
:10083000CE0EDF1EE40CF51C2B813C812F5F3F4F59
:100840003C832B836B817C81A616B706E4F604C03B
:10085000A6016B817C81E4CF0F900F900F900F90D9
:10086000DF91CF911F910F91FF90EF90DF90CF908C
:10087000BF90AF909F908F907F906F905F904F90C0
:100880003F902F9008956F927F928F929F92AF9298
:10089000BF92CF92DF92EF92FF920F931F93CF936D
:1008A000DF93EC015B016A0139014801E881F981BC
:1008B0000284F385E02D87010995E881F981A6017D
:1008C000480D591D415051090284F385E02D9301D3
:1008D000B501CE010995E881F9810084F185E02D0B
:1008E0009401A601B501CE010995E881F981B50110
:1008F000660D771D615071090084F185E02D94012A
:10090000A601CE010995DF91CF911F910F91FF9024
:10091000EF90DF90CF90BF90AF909F908F907F909F
:100920006F900895EF92FF920F931F93DC01ED916A
:10093000FC91240F351F215031090680F781E02DED
:10094000780189019B0109951F910F91FF90EF900C
:100950000895EF92FF920F931F93DC01ED91FC91AC
:10096000260F371F215031090680F781E02D7801CD
:100970008A0109951F910F91FF90EF9008956F9252
:100980007F928F929F92AF92BF92CF92DF92EF921F
:10099000FF920F931F93CF93DF935C014A0169018C
:1009A0003801EB01C60ED71ECC15DD0574F4D50158
:1009B000ED91FC910084F185E02D87019301A40164
:1009C000BE01C50109952196EFCFDF91CF911F910F
:1009D0000F91FF90EF90DF90CF90BF90AF909F90DE
:1009E0008F907F906F900895EF92FF920F931F93D7
:1009F000DC01ED91FC9111971A960D911C911B97BA
:100A000018962D913C9119970684F785E02D7B016E
:100A100040E050E060E070E009951F910F91FF9079
:100A2000EF9008950895FC011382128289E191E00C
:100A3000918380837583648357834683718760873E
:100A400053874287158A158614861786168621E0F5
:100A5000248B8FEF9FEF938B828B918B808B268BD8
:100A600008952F923F924F925F926F927F928F9252
:100A70009F92AF92BF92CF92DF92EF92FF920F932D
:100A80001F93CF93DF93CDB7DEB72C970FB6F894B3
:100A9000DEBF0FBECDBF9C878B873A0118870F83BF
:100AA000FA86E986CD82DC0118968D919C91199782
:100AB000681779070CF094C01A968D919C911B973A
:100AC000481759070CF08CC08C2C912CCB01B6E048
:100AD000CB9E800D911D1124181619060CF080C0B4
:100AE000C40153E0880F991F5A95E1F7860D971DB1
:100AF000181619060CF074C0F5E02F9F2001112480
:100B00005B016B011C82920126513F4F2901461A5D
:100B1000570A3C81353031F0F201EA0DFB1D44915A
:100B20004B8301C01B827A82698213011E828B81F2
:100B300080FF13C0AB85BC85ED91FC91BD81B130C8
:100B400031F40480F581E02D2F81388519C00684A9
:100B5000F785E02DEF80F8841EC0E985FA852F81A6
:100B60003885E217F307F9F0AB85BC85ED91FC9170
:100B7000BD81B13059F40480F581E02D29853A8595
:100B8000A101B5018B859C8509950DC00684F7856B
:100B9000E02DE984FA848401940149815A81B601E7
:100BA0008B859C850995EB81E695EB83FE81FF5F44
:100BB000FE8329813A81280D391D3A8329833FEF2D
:100BC000231A330AF83009F0B2CF4C814F5F4C83BF
:100BD000C80CD91C8FEFA81AB80A463009F099CF73
:100BE0002C960FB6F894DEBF0FBECDBFDF91CF912C
:100BF0001F910F91FF90EF90DF90CF90BF90AF903B
:100C00009F908F907F906F905F904F903F902F902C
:100C10000895CF92EF92FF920F931F93CF93DF939C
:100C2000EC01262F6A3049F42C898E859F8538E0A7
:100C3000239F800D911D112432C06D30A1F1EA88EF
:100C4000FB88088919894E855F856C857D85CC88F0
:100C50000E9431052C89422F50E08C859D8536E01D
:100C6000239F800D911D11249D878C872E8922231F
:100C7000D1F06AEF64039001659F300D11246885FF
:100C80007985260F371F281739076CF463E0440F66
:100C9000551F6A95E1F78E859F85840F951F9F8765
:100CA0008E871D861C8681E090E0DF91CF911F9199
:100CB0000F91FF90EF90CF900895FC0175876487A6
:100CC000578746870895611101C061E0FC01648B7C
:100CD0000895FC01738B628B718B608B0895FC010E
:100CE00085890895FC01808591850895FC018285A0
:100CF00093850895CF93DF93EC01CB01BA012BEDDF
:100D00003FE049EC50E40E9469229B01AC0160E0A5
:100D100070E080E89FE30E940F2020E034E244E787
:100D200059E40E9469226A837B838C839D83DF91CF
:100D3000CF910895CF92DF92EF92FF920F931F937E
:100D4000CF93DF93EC01CB01BA01A90167017801D0
:100D500099838883CE010E947A06CA86DB86EC8658
:100D6000FD86CE86DF86E88AF98ACA8ADB8AEC8A23
:100D7000FD8A0E94A3196A8F7B8F8C8F9D8FDF91D4
:100D8000CF911F910F91FF90EF90DF90CF9008953A
:100D9000EF92FF920F931F930E949A061F910F915B
:100DA000FF90EF900895CF92DF92EF92FF92CF9352
:100DB000DF93EC01888199818130910589F174F488
:100DC000892B09F043C02A853B854C855D856A895E
:100DD0007B898C899D890E94A61F3BC0823091052A
:100DE00021F1039799F52A853B854C855D856A89B4
:100DF0007B898C899D890E94A61F6B017C0120E064
:100E000034E244E759E46A817B818C819D810E94B0
:100E10000F209B01AC01C701B6010E940F2019C031
:100E20006A857B858C859D8514C020E034E244E78B
:100E300059E46A817B818C819D810E940F202A85E3
:100E40003B854C855D850E94692203C060E070E0AF
:100E5000CB01DF91CF91FF90EF90DF90CF9008957D
:100E60004F925F926F927F928F929F92AF92BF92BA
:100E7000CF92DF92EF92FF920F931F93CF93DF9366
:100E8000EC012A013B010E94A3196B017C014A8DF0
:100E90005B8D6C8D7D8D97018601041B150B260BD8
:100EA000370BC901B8010E94DB209B01AC016E8B9E
:100EB0007F8B888F998FCA8EDB8EEC8EFD8E8A8415
:100EC0009B84AC84BD848E869F86A88AB98A4A8A10
:100ED0005B8A6C8A7D8A6A817B818C819D810E947C
:100EE0000F209B01AC016E837F838887998760E028
:100EF00070E080E89FEB0E940F200E947C206B0135
:100F00007C019B01AC0160E070E080E89FE30E94FF
:100F1000A61FA30192010E9469222B013C01A50199
:100F20009401C701B6010E9469229B01AC01C30173
:100F3000B2010E94A71F6A877B878C879D87CE019D
:100F4000DF91CF911F910F91FF90EF90DF90CF90A5
:100F5000BF90AF909F908F907F906F905F904F90D9
:100F60000C94D3060F931F93CF93DF93EC018D89DD
:100F7000823061F08330D9F0813009F0C8C0EC8153
:100F8000FD81E41BF50B3197DB0118C08C819D813D
:100F9000DC01A61BB70BBD018E819F81FC01E41B08
:100FA000F50BAF0141505109621B730BB0C0AE810C
:100FB000BF81A61BB70BA21BB30BFA01F7FD05C13E
:100FC0008C819D81E817F9070CF0FFC0B7FF04C0C2
:100FD0002A0F3B1FA0E0B0E08E819F81AD01420F40
:100FE000531F841795071CF49C012A1B3B0B1216F8
:100FF00013060CF0EAC0422F8A2F869586958695B7
:1010000090E8899FE00DF11D1124E455FE4FA77073
:1010100069F158E05A1B852F90E0EC01C45FDE4F68
:101020006881251760F4DC01A21BB1098FEF90E005
:101030000A2E02C0959587950A94E2F7682301303D
:10104000110539F048F00230110551F480818627EE
:1010500006C08081862B03C06095808186238083B3
:10106000451708F4B2C0451BE058FF4F4830A0F1C7
:1010700002301105A9F4DF01842F9C9190959C9377
:10108000A058BF4F88508830C0F788EF840F8695EE
:1010900086958695B0E88B9FE00DF11D112419C04F
:1010A00081E00130110509F080E0982F9195EF0162
:1010B000842F9883C058DF4F88508830D0F788EF4E
:1010C000840F86958695869590E8899FE00DF11DA1
:1010D0001124E058FF4F4770442309F476C0A42F31
:1010E000B0E0AC5FBE4F9C910130110541F050F073
:1010F0000230110509F069C08081892706C080810E
:10110000892B03C090958081892380835EC057FD21
:101110005CC08E819F81481759070CF056C077FF3D
:1011200004C0260F371F60E070E08C819D81FB01B9
:10113000E20FF31F8E179F071CF49C01261B370B31
:10114000121613060CF041C0CA0157FD0796E3E0E2
:1011500095958795EA95E1F79695982F8827979525
:10116000879584559E4F860F971F4770552761E0DE
:1011700070E001C0660F4A95EAF7462F013011056D
:1011800041F088F00230110501F5FC01280F391FEC
:1011900015C0FC01280F391FE217F307B1F0808159
:1011A000842B8193F9CF6095FC01280F391FE2173A
:1011B000F30759F0808186238193F9CFE217F30773
:1011C00021F0808184278193F9CFDF91CF911F9106
:1011D0000F9108950F931F93CF93DF93FC0185899F
:1011E000823069F08330E1F0813009F082C0C4813F
:1011F000D581C41BD50BC21BD30BDB0117C0848167
:101200009581DC01A61BB70BBD0161507109868178
:101210009781DC01A41BB50BAD01421B530B69C0C8
:10122000A681B781A61BB70B1197EA01B7FD08C1CC
:1012300086819781A817B9070CF002C1D7FF04C0B7
:101240002C0F3D1FC0E0D0E084819581AE01420F9C
:10125000531F841795071CF49C012C1B3D0B121681
:1012600013060CF0EDC0CD01B7FD079643E0959550
:1012700087954A95E1F79695982F882797958795B2
:1012800084559E4F8C0F9D1FA770BB2741E050E0F7
:101290000A2E01C0440F0A94EAF7642F01301105A9
:1012A00049F098F00230110509F0CAC0FC01280F7E
:1012B000391F17C0FC01280F391FE217F30709F483
:1012C000BFC08081862B8193F8CF4095FC01280F09
:1012D000391FE217F30709F4B3C080818423819397
:1012E000F8CFE217F30709F4ABC08081862781931A
:1012F000F8CF77FDA5C084819581681779070CF038
:101300009FC057FF04C0240F351F40E050E0868186
:101310009781FA01E20FF31F8E179F071CF49C01BF
:10132000241B350B121613060CF08AC0522F842F83
:10133000869586958695FB01B0E88B9FE00DF11DA3
:101340001124E455FE4F477069F168E0641B862F55
:1013500090E0EC01C45FDE4F4881261760F4DC01A9
:10136000A21BB1098FEF90E00A2E02C095958795D8
:101370000A94E2F748230130110539F048F00230B1
:10138000110551F48081842706C08081842B03C01D
:101390004095808184238083561708F451C0561BE2
:1013A000E058FF4F5830A0F102301105A9F4DF01D9
:1013B000852F9C9190959C93A058BF4F8850883062
:1013C000C0F788EF850F869586958695B0E88B9F48
:1013D000E00DF11D112419C081E00130110509F063
:1013E00080E0982F9195EF01852F9883C058DF4FAB
:1013F00088508830D0F788EF850F8695869586953A
:1014000090E8899FE00DF11D1124E058FF4F5770BF
:101410005523B1F0A52FB0E0AC5FBE4F9C910130D9
:10142000110539F048F00230110551F48081892707
:1014300006C08081892B03C0909580818923808399
:10144000DF91CF911F910F910895CF92DF92EF928C
:10145000FF920F931F93CF93DF937C018B01EA01DF
:10146000690177FDA0C00E947206081719070CF0E9
:101470009AC0D7FD98C0C7010E947606C817D90741
:101480000CF091C0C7010E946F06823009F07FC046
:10149000F701848195819C01201B310B890101504A
:1014A000110986819781FC01EC1BFD0BEF0121974F
:1014B0000BC0813049F4F701848195818C1B9D0B11
:1014C000E8018C0101501109F1E0CF16D10431F08F
:1014D00010F132E0C316D104E1F165C0FE01D7FD81
:1014E000379683E0F595E7958A95E1F7F695FE2F17
:1014F000EE27F795E795E00FF11FE455FE4FC77013
:10150000DD2781E090E00C2E01C0880F0A94EAF7F5
:101510009081982B3AC0FE01D7FD3796A3E0F59550
:10152000E795AA95E1F7F695FE2FEE27F795E79553
:10153000E00FF11FE455FE4FC770DD2781E090E01A
:101540000C2E01C0880F0A94EAF7809590819823A9
:101550001CC0FE01D7FD379663E0F595E7956A95C7
:10156000E1F7F695FE2FEE27F795E795E00FF11FCF
:10157000E455FE4FC770DD2781E090E00C2E01C0DE
:10158000880F0A94EAF79081982790830CC08330E3
:1015900009F08FCFF70186819781801B910B8E0117
:1015A000EC01219791CFDF91CF911F910F91FF9087
:1015B000EF90DF90CF900895CF93DF93EC0140E45C
:1015C00050E060E870E00E94130581E391E09983A8
:1015D0008883DF91CF91089580E094E0ECEAF1E018
:1015E000DF019C011D9221503040E1F70895CF9317
:1015F000C62FFC018789682F772767FD709584EFD8
:1016000095E00E94761760E084EF95E00E94231732
:101610006C2F84EF95E00E94231784EF95E0CF9123
:101620000C948B171F93CF93DF93EC01162F688FC9
:101630004F8B84EF95E00E9462176EEACE010E9404
:10164000F70A65EDCE010E94F70A60E8CE010E941C
:10165000F70A68EACE010E94F70A6FE3CE010E9402
:10166000F70A63EDCE010E94F70A60E0CE010E9406
:10167000F70A60E4CE010E94F70A6DE8CE010E94ED
:10168000F70A113011F460E101C064E1CE010E945B
:10169000F70A60E2CE010E94F70A60E0CE010E94E4
:1016A000F70A61EACE010E94F70A68ECCE010E94B7
:1016B000F70A6AEDCE010E94F70A62E1CE010E94AC
:1016C000F70A61E8CE010E94F70A113011F46FE9C0
:1016D00001C06FECCE010E94F70A69EDCE010E94B5
:1016E000F70A113011F462E201C061EFCE010E94ED
:1016F000F70A6BEDCE010E94F70A60E4CE010E946A
:10170000F70A64EACE010E94F70A66EACE010E9457
:10171000F70A6FEACE01DF91CF911F910C94F70A7F
:10172000EF92FF920F931F93CF93DF93EC0161E24F
:101730000E94F70A60E0CE010E94F70A6FE7CE012F
:101740000E94F70A62E2CE010E94F70A60E0CE0131
:101750000E94F70A67E0CE010E94F70A0CEA11E046
:101760006F89772767FD709584EF95E00E94761763
:10177000E091F405F091F5050190F081E02D60E431
:1017800084EF95E00995E12CF12CF801EE0DFF1D99
:10179000608184EF95E00E9423178FEFE81AF80A22
:1017A00080E1E816F10489F784EF95E00E948B1739
:1017B000005F1F4F85E00C3A180791F6DF91CF913B
:1017C0001F910F91FF90EF900895F8940E94A31934
:1017D0006093AC057093AD058093AE059093AF0513
:1017E0000895CF93DF93CDB7DEB7CF56D1090FB6AB
:1017F000F894DEBF0FBECDBF60E0CE014A960E94D6
:10180000DC0A84E690E022969FAF8EAF22979FAFCE
:101810008EAF1DAE1CAE1BAE1AAE88E592E099AF3E
:1018200088AF83E090E09FAB8EABCE01C3960E9461
:10183000F8150E94C61926E040E052EC61E070E025
:1018400081EC96E00E94441F65E471E081EC96E033
:101850000E942E1C4CE362E0CE014A960E94120BBD
:10186000CE014A960E94EC0A62E0CE014A960E949E
:10187000630661E070E0CE014A960E94690640E08E
:1018800050E060E070E0CE014A960E945D0661E3A0
:1018900076E0CE014A960E943B1C64E0CE014A9657
:1018A0000E94630642E150E067E270E0CE014A9692
:1018B0000E945D066EE276E0CE014A960E943B1CD5
:1018C00062E0CE014A960E94630642E350E067E17F
:1018D00070E0CE014A960E945D0666E276E0CE0197
:1018E0004A960E943B1CCE014A960E94900B249877
:1018F0002C9A52985A9A2198299A53985B98549AFC
:101900005C9880E090E00E94B112883E934028F4F9
:1019100080E090E00E94B11202C088EE93E09C014A
:101920008A30910514F42AE030E022963FAF2EAFC2
:10193000229780E590E00E94B1128431954028F40E
:1019400080E590E00E94B11202C084E195E09C0124
:101950008A30910514F42AE030E03FAF2EAF80E1E9
:1019600090E00E94B11299AF88AF80E290E00E94AF
:10197000B1120A9728F480E290E00E94B11202C0EE
:101980008AE090E09C0197FF02C020E030E03FAB8E
:101990002EAB80E390E00E94B112C29728F480E35E
:1019A00090E00E94B11202C082E390E09C0197FF98
:1019B00002C020E030E03DAF2CAF80E490E00E9418
:1019C000B112C29728F480E490E00E94B11202C0E4
:1019D00082E390E09C0197FF02C020E030E03BAF43
:1019E0002AAF42E050E065EE7BE080E00E94011A01
:1019F0006AE070E0CE01C3960E9492168FEF99E6DE
:101A0000A8E181509040A040E1F700C0000027EE1F
:101A100033E06A963FAF2EAF6A9768961FAE1EAE50
:101A2000689766961FAE669731E023963FAF23977F
:101A300065961FAE65972C961FAE2C97212C312CE6
:101A400021012B961FAE1EAE2B97812C912CB12C11
:101A5000A12C64962CAE3DAE4EAE5FAE6497F8EE10
:101A60006F2EF3E07F2E26961FAE1EAE2697299688
:101A70001FAE1EAE299724961FAE249727961FAE41
:101A8000279760961CAE1DAE1EAE1FAE6097A89540
:101A900068AD79AD882777FD8095982F0E94DB206F
:101AA0006B017C019B01AC01C201B1010E940B20C2
:101AB00087FF18C02C968FAD2C97811116C020E09F
:101AC00030E040E251E4C201B1010E94A71FA7012A
:101AD00096010E940B20881F8827881F2C968FAFA5
:101AE0002C9703C02C961FAE2C97199902C01C9BF3
:101AF00055C38EE00E94131B6C969FAF8EAF6C9700
:101B00002696AEADBFAD26978A1B9B0B0397D8F4E4
:101B100060968CAD9DADAEADBFAD60976C962EADB1
:101B20003FAD6C97820F931FA11DB11D60968CAFC6
:101B30009DAFAEAFBFAF609727963FAD27973F5F92
:101B400027963FAF279727968FAD27978F3BD8F1E2
:101B50000E94C6121B012C010E943F136B017C01E5
:101B6000A6967FAF6EAFA69727969FAD2797292F92
:101B700030E040E050E060966CAD7DAD8EAD9FAD45
:101B800060970E949023C701B601882799270E9479
:101B90002A2323ED39E140E050E00E94902329966A
:101BA0003FAF2EAF29976596AFAD6597AF5F65964E
:101BB000AFAF659727961FAE279760961CAE1DAEF8
:101BC0001EAE1FAE60970E94C6126D966FAF6D97E6
:101BD0006E967FAF6E976F968FAF6F97A0969FAF01
:101BE000A09794014B2D5A2D0E94A61F6B017C01DA
:101BF00020E030E0A9010E94B02118165CF420E03A
:101C000030E040E251E4C701B6010E940B2087FF9B
:101C10002FC00AC020E030E040E251ECC701B6011D
:101C20000E94B021181624F56D962FAD6D976E9613
:101C30003FAD6E976F964FAD6F97A0965FADA09733
:101C400064966CAD7DAD8EAD9FAD64970E94A71F6D
:101C500064966CAF7DAF8EAF9FAF64972B962EAD21
:101C60003FAD2B972F5F3F4F2B963FAF2EAF2B975C
:101C70002B968EAD9FAD2B978D37A1E09A07D8F0AC
:101C8000BC0180E090E00E94D9209B01AC016496E9
:101C90006CAD7DAD8EAD9FAD64970E940F201B0192
:101CA0002C012B961FAE1EAE2B9764961CAE1DAE5C
:101CB0001EAE1FAE649780E10E94131B26969FAF55
:101CC0008EAF2697BC0180E090E01F921F9227E024
:101CD0002F9320ED2F935EE7A52E54E0B52EC12C57
:101CE000D12C17E5E12E13E0F12E00E010E023ECFB
:101CF00030E040E050E00E94281E6B017C010F9014
:101D00000F900F900F9026962EAD3FAD26972E3C4C
:101D1000310508F453C0AEA8BFA8B501882777FDE8
:101D20008095982F0E94DB209B01AC018CE4C81A9F
:101D300084E0D80AB601882777FD8095982FAD9664
:101D40002FAFAD97AE963FAFAE97AF964FAFAF9771
:101D5000E0965FAFE0970E94DB20AD962FADAD9788
:101D6000AE963FADAE97AF964FADAF97E0965FADF5
:101D7000E0970E94CC226B017C01B5016150710992
:101D8000882777FD8095982F0E94DB209B01AC016E
:101D900060E070E081E694E40E94CC229B01AC01FB
:101DA000C701B6010E940F2020E030E849E854E462
:101DB0000E94A71F0E94A8208B0102C008EE13E01A
:101DC0002CAD3DADA2963FAF2EAFA29722962EAD81
:101DD0003FAD2297A8963FAF2EAFA897611434E08D
:101DE000730664F0B301685E7340882777FD8095C1
:101DF000982F0E94DB206B017C0106C0C12CD12CE6
:101E000048EBE42E41E4F42E8AAD9BADAA969FAF39
:101E10008EAFAA97AEADBFADAC96BFAFAEAFAC972D
:101E2000199B88C0B301882777FD8095982F0E9461
:101E3000DB204B015C01A2962EAD3FADA297B9010C
:101E4000882777FD8095982F0E94DB20A4966CAFA1
:101E50007DAF8EAF9FAFA497A8962EAD3FADA8974C
:101E6000B901882777FD8095982F0E94DB209B0180
:101E7000AC0160E070E0CB010E94A61F9B01AC01A9
:101E8000A4966CAD7DAD8EAD9FADA4970E946922E6
:101E900020E030E048EC52E40E940F209B01AC01AE
:101EA000C501B4010E94A61F0E94A820683E33E02D
:101EB000730714F468EE73E0C801013DA7E01A0748
:101EC00014F080ED97E0883EB3E09B0714F488EEB1
:101ED00093E05C01681779070CF45B01A701960198
:101EE00060E070E0CB010E940F200E94A820AC9619
:101EF0002EAD3FADAC97621B730BAA96AEADBFADD6
:101F0000AA97A69FC001A79F900DB69F900D112480
:101F100068E17CEF0E945A23660D771D683EB3E0AE
:101F20007B0714F468EE73E035016A157B0534F421
:101F30003B0104C038EE632E33E0732E2C962FAD98
:101F40002C97211104C028EE622E23E0722EB301DB
:101F5000CE01C3960E9498166896AEADBFAD689745
:101F6000BD0180E090E00E94D9209B01AC01C2013C
:101F7000B1010E94B021181644F4C201B1010E94BF
:101F8000AD2068967FAF6EAF689729962EAD3FADB6
:101F900029976A968EAD9FAD6A972817390768F41E
:101FA00065969FAD6597963040F06A963FAF2EAF2D
:101FB0006A97A4E16596AFAF65976696BFAD6697E1
:101FC000BF5F6696BFAF66971C9903C0B73408F031
:101FD00040C124962FAD24972F5F24962FAF2497CE
:101FE000203108F041C1ACC068E570E0CE014A96EE
:101FF0000E945D062C963FAD2C97332309F403C253
:102000006BE571E0CE014A960E942E1C61E0CE0184
:102010004A960E94630646E150E069E070E0CE0116
:102020004A960E945D066EE571E0CE014A960E94D6
:102030002E1C63E0CE014A960E94630643E250E004
:1020400060E070E0CE014A960E945D060AE010E072
:1020500029968EAD9FAD2997B8010E9446237C0139
:102060004AE050E0CE014A960E941D1D62E0CE017A
:102070004A960E94630667E176E0CE014A960E9486
:10208000091C4AE050E0B701CE014A960E94231D88
:1020900063E0CE014A960E94630643E250E064E4A6
:1020A00070E0CE014A960E945D06C201B1010E9415
:1020B000A820CB01B8010E945A238C014AE050E0CD
:1020C000CE014A960E94F01C62E0CE014A960E9420
:1020D000630665E176E0CE014A960E94091C4AE05B
:1020E00050E0B801CE014A960E94F81CEA8DFB8DA3
:1020F0000680F781E02DEE24E394F12C01E110E05D
:1021000020E830E041E150E060E070E0CE014A9626
:102110000995EA8DFB8D0680F781E02D00E410E043
:1021200020E430E041E150E060E470E0CE014A9606
:102130000995CE014A960E94900B24961FAE2497D3
:1021400023963FAD2397363020F081E023968FAF62
:1021500023976FE671E081EC96E00E942E1C4AE026
:1021600050E026966EAD7FAD269781EC96E00E94FA
:10217000231D6D968FAC6D976E969FAC6E976F9684
:10218000BFAC6F97A096AFACA0976C96AEADBFAD4D
:102190006C972696BFAFAEAF269779CC64E771E017
:1021A00081EC96E00E942E1C8C8D9D8D9C838B83F0
:1021B0008E8D9F8D9E838D8388A199A198878F8313
:1021C0008AA19BA19A8789878CA19DA19C878B87D7
:1021D0008EA19FA19E878D8788A599A5988B8F87B3
:1021E0008AA59BA59A8B898B8CA59DA59C8B8B8B97
:1021F0008EA58D8B8FA58E8B88A98F8B21E331E0E7
:102200003A83298389A9888F8AA9898FCE01CA96A2
:102210006C01DE01DC967D018E010A5C1F4F9E0180
:10222000285C3F4FAE01425C5F4FBE01605C7F4F58
:10223000C9970E946613BFEF25EA3EE0B1502040E7
:102240003040E1F700C0000081E023968FAF239774
:1022500050CC23969FAD23979F5F23969FAF2397E4
:1022600066961FAE6697B5CE2396AFAD2397A33083
:10227000C9F5A895CE014A960E94EC0A62E0CE010B
:102280004A960E94630640E050E069E170E0CE01AA
:102290004A960E945D0668E076E0CE014A960E946A
:1022A0003B1C65E0CE014A960E94630645E150E082
:1022B00060E070E0CE014A960E945D062996AEADC0
:1022C000BFAD2997BD0180E090E00E94D92020E0B9
:1022D00030E040E251E40E940F20AB01BC0121E05C
:1022E00030E041C0A43008F443C02396BFAD23972B
:1022F000B43009F0BEC0A895CE014A960E94EC0AFF
:1023000062E0CE014A960E94630640E050E063E23C
:1023100070E0CE014A960E945D0664E076E0CE0150
:102320004A960E943B1C65E0CE014A960E946306D5
:1023300045E150E060E070E0CE014A960E945D0603
:10234000A6962EAD3FADA697B90180E090E00E9421
:10235000D92020E030E04AE754E40E940F20AB018E
:10236000BC0122E030E0CE014A960E94241EE1CE5C
:10237000A13009F04FC0A895CE014A960E94EC0A00
:1023800062E0CE014A960E94630640E050E060E0C1
:1023900070E0CE014A960E945D061F921F921F9226
:1023A00084E68F93A12CB12C650110EDE12E17E08E
:1023B000F12E00E010E028EE33E040E050E0B30101
:1023C000882777FD8095982F0E94281E4AE050E0CC
:1023D000CE014A960E94F01C64E276E0CE014A9655
:1023E0000E94091C0F900F900F900F9040E050E05A
:1023F0001999FACD61E470E0CE014A960E945D061B
:102400006EE176E002C069E176E0CE014A960E9474
:102410003B1CFCCDA23009F08CCEA895CE014A968B
:102420000E94EC0A62E0CE014A960E94630640E0F8
:1024300050E060E270E0CE014A960E945D0660E1E5
:1024400076E0CE014A960E943B1C65E0CE014A969A
:102450000E94630645E150E060E070E0CE014A96DC
:102460000E945D0620E030E040E251E4C201B1018B
:1024700032CFB53009F05DCEA895CE014A960E94C4
:10248000EC0A62E0CE014A960E94630640E050E00A
:1024900066E170E0CE014A960E945D066DEF75E040
:1024A000CE014A960E943B1C41E150E060E070E0A2
:1024B000CE014A960E945D0665EF75E0CE014A9610
:1024C0000E94091C4AE050E068966EAD7FAD6897A7
:1024D000CE014A960E94F01C41E250E060E070E0BC
:1024E000CE014A960E945D066DEE75E0CE014A96D9
:1024F0000E94091C4AE050E060E070E0CE014A967C
:102500000E94F01C41E350E060E070E0CE014A968A
:102510000E945D0665EE75E0CE014A960E94091C98
:102520004AE050E06A966EAD7FAD6A97CE014A965A
:102530000E94F01CFECD0F931F93CF93DF931F9249
:10254000CDB7DEB78C0179830E94DC237981672FB8
:10255000C80101960F90DF91CF911F910F910C94BC
:10256000DC231F93CF93DF93EC010E94D423182F19
:10257000CE0101960E94D423282F30E0922F882785
:10258000810F911DDF91CF911F9108958F929F929E
:10259000AF92BF92CF92DF92EF92FF928FE00E94B4
:1025A000131BBC01882777FD8095982F0E94DB20A4
:1025B000AB01BC0180EB95E00E94300780EB95E019
:1025C0000E94D3060E94A8206115710509F44AC033
:1025D0009B01442737FD4095542F60E070E48CE95F
:1025E00090E00E9490232051374241095109CA01CD
:1025F000B9010E94DB200E94F6216B017C0123E7D8
:102600003FE745E759E30E9469222BEE3FEF43E99C
:102610005AE30E94A71F4B015C0129E537E44CEB0C
:1026200053E3C701B6010E946922A70196010E94E7
:102630006922A70196010E9469229B01AC01C50194
:10264000B4010E94A71F9B01AC0160E070E080E232
:1026500091E40E940F2020E038EB4AE255E40E940A
:10266000A61F04C060E070E08AEF93E4FF90EF9053
:10267000DF90CF90BF90AF909F908F9008958EE4A1
:1026800080937C008FE99FE00197F1F700C0000084
:1026900080917A00806480937A0080917A0086FD30
:1026A000FCCF809178002091790030E0322F2227F2
:1026B000442737FD4095542F282B67E475EB80E1C4
:1026C00090E00E949023CA01B90108958F929F92D1
:1026D000AF92BF92CF92DF92EF92FF920F931F9330
:1026E000CF93DF93EC0159010E94EC0A63E0CE0125
:1026F0000E94630644E150E064E170E0CE010E9474
:102700005D0667E676E0CE010E943B1CCE010E948A
:10271000900B2FEF33EC89E0215030408040E1F7FF
:1027200000C00000199902C0A895FCCF21E03AE052
:10273000832E912C1C9B53C0A895222389F1CE0196
:102740000E94EC0A62E0CE010E94630640E050E085
:1027500063E070E0CE010E945D066CE576E0CE019C
:102760000E943B1C63E0CE010E9463064EE150E0F4
:1027700069E170E0CE010E945D06F50180819181E2
:10278000B4010E945A234AE050E0CE010E94F01C9E
:1027900069E576E0CE010E943B1CCE010E94900BC1
:1027A000199911C0F501808191810A9691838083E6
:1027B000FFEF26E731E0F15020403040E1F700C064
:1027C000000021E001C020E0F50180819181893E77
:1027D00093400CF4AFCFF50111821082ABCFF5011D
:1027E0006081718180E190E00E949B12FFEF25EAF9
:1027F0003EE0F15020403040E1F700C0000021E011
:102800001C9B49C0A895222349F1CE010E94EC0AE5
:1028100062E0CE010E94630640E050E065E070E0B7
:10282000CE010E945D066FE476E0CE010E943B1C63
:1028300063E0CE010E9463064EE150E062E370E087
:10284000CE010E945D06F801608171814AE050E08E
:10285000CE010E94F01CCE010E94900B199911C06C
:10286000F80180819181019691838083FFEF26E7B3
:1028700031E0F15020403040E1F700C0000021E09D
:1028800001C020E0F8018081918106970CF4B8CF57
:1028900011821082B5CFF8016081718180E290E0F1
:1028A0000E949B12FFEF25EA3EE0F15020403040AD
:1028B000E1F700C0000021E01C9B4BC0A89522233B
:1028C00049F1CE010E94EC0A62E0CE010E9463064B
:1028D00040E050E065E070E0CE010E945D0665E4F6
:1028E00076E0CE010E943B1C63E0CE010E946306AD
:1028F0004EE150E068E270E0CE010E945D06F70113
:10290000608171814AE050E0CE010E94F01CCE014E
:102910000E94900B199911C0F70180819181019655
:1029200091838083FFEF26E731E0F1502040304073
:10293000E1F700C0000021E001C020E0F701808144
:102940009181C3970CF4B8CF8AE090E091838083A3
:10295000B3CFF7016081718180E390E00E949B1208
:10296000FFEF25EA3EE0F15020403040E1F700C0A3
:10297000000021E001E010E01C9B49C0A895222343
:1029800049F1CE010E94EC0A62E0CE010E9463068A
:1029900040E050E065E070E0CE010E945D066CE32F
:1029A00076E0CE010E943B1C63E0CE010E946306EC
:1029B0004EE150E068E270E0CE010E945D06F60153
:1029C000608171814AE050E0CE010E94F01CCE018E
:1029D0000E94900B199911C0F60180819181019696
:1029E00091838083FFEF26E731E0F15020403040B3
:1029F000E1F700C0000021E001C020E0F601808185
:102A0000918184970CF4B8CF11830083B5CFF60180
:102A10006081718180E490E00E949B12FFEF25EAC3
:102A20003EE0F15020403040E1F700C00000CE0110
:102A3000DF91CF911F910F91FF90EF90DF90CF909A
:102A4000BF90AF909F908F900C94EC0AEF92FF9202
:102A50000F931F93E12CF12C870120E030E040E838
:102A600050E461E070E080EB95E00E94C8061F91A1
:102A70000F91FF90EF9008951F920F920FB60F9253
:102A800011242F933F934F935F936F937F938F9373
:102A90009F93AF93BF93EF93FF938091CF0587FFF1
:102AA00005C010928500109284001AC02091CF05B5
:102AB000332727FD30958091CE0590E02817390700
:102AC0007CF48091CF05992787FD9095FC01EE0F4E
:102AD000FF1FE80FF91FE053FA4F808186FD15C0F4
:102AE0008091CF058F5F8093CF052091CF0533274D
:102AF00027FD30958091CE0590E028173907BCF46A
:102B00008091CF058C305CF112C08091CF05992760
:102B100087FD9095FC01EE0FFF1FE80FF91FE053B2
:102B2000FA4F808160E08F730E94DD1AD9CF8091C7
:102B3000840090918500049680349C4918F480E4C8
:102B40009CE905C080918400909185000496909343
:102B50008900809388008FEF8093CF0538C0209143
:102B60008400309185008091CF05992787FD90954D
:102B7000FC01EE0FFF1FE80FF91FE053FA4F8181B0
:102B80009281820F931F9093890080938800809197
:102B9000CF05992787FD9095FC01EE0FFF1FE80FE9
:102BA000F91FE053FA4F808186FF11C08091CF0555
:102BB000992787FD9095FC01EE0FFF1FE80FF91F85
:102BC000E053FA4F808161E08F730E94DD1AFF911C
:102BD000EF91BF91AF919F918F917F916F915F9195
:102BE0004F913F912F910F900FBE0F901F9018950E
:102BF0002091CE052C30A0F431E0320F3093CE0579
:102C0000FC012083822F90E0FC01EE0FFF1FE80FF4
:102C1000F91FE053FA4F88EB9BE09283818308957C
:102C20002FEFFC0120830895DF92EF92FF920F9324
:102C30001F93CF93DF93EC01D62E7A01890188810F
:102C40008C3008F066C061E08D2D0E94A41A888146
:102C5000A82FB0E0FD01EE0FFF1FEA0FFB1FE053AE
:102C6000FA4F2D2D2F739081907C922B908360E2F0
:102C700072E06E197F0977FF02C06D5F7F4F759517
:102C8000679575956795698340E659E0401B510B40
:102C900057FF02C04D5F5F4F559547955595479536
:102CA0004A836CE00E943A239CE0899FB001112482
:102CB00020E030E0A901460F571FFA01EE0FFF1F79
:102CC000E40FF51FE053FA4F908196FD16C02F5F79
:102CD0003F4F2C30310571F781110FC010928000E9
:102CE00082E0809381001092850010928400B19A56
:102CF00080916F00826080936F00888190E0FC017A
:102D0000EE0FFF1FE80FF91FE053FA4F8081806438
:102D100080838881DF91CF911F910F91FF90EF9079
:102D2000DF90089520E639E040E252E00C9414165A
:102D3000FC0180818C3070F5918128E830E0291BFE
:102D4000310997FD3395220F331F220F331F62176E
:102D500073077CF0928128E532E0291B310997FD49
:102D60003395220F331F220F331F621773070CF4A2
:102D70009B0122503109220F331F4FB7F89490E086
:102D8000FC01EE0FFF1FE80FF91FE053FA4F3283EB
:102D900021834FBF08958091240690E0209125065D
:102DA000821B9109089520912506809124062817F9
:102DB00050F4E22FF0E0EA5DF94F808190E02F5F60
:102DC0002093250608958FEF9FEF0895E091250643
:102DD00080912406E81730F4F0E0EA5DF94F808135
:102DE00090E008958FEF9FEF08950895CF92DF92BE
:102DF000EF92FF920F931F93CF93DF937C01CB0150
:102E00008A0120910006222389F0EB016B01C40E98
:102E1000D51ECC15DD0569F06991D701ED91FC91C6
:102E20000190F081E02DC7010995F3CF642F0E9436
:102E30000318C801DF91CF911F910F91FF90EF9080
:102E4000DF90CF900895CF93DF931F92CDB7DEB779
:102E50006983209100062223D1F0209101062032BF
:102E600040F021E030E0FC013383228380E090E0F9
:102E700015C080910206E82FF0E0ED5FF94F9981CF
:102E800090838F5F809302068093010605C061E006
:102E9000CE0101960E94031881E090E00F90DF912F
:102EA000CF910895FC011382128248EE53E060E056
:102EB00070E044835583668377838EE791E0918346
:102EC000808308951092250610922406109202061F
:102ED000109201060C94921781E080930006609393
:102EE0002306109202061092010608950C946C17A6
:102EF0000F93062F21E04091010663E076E0809178
:102F000023060E94B017109202061092010610923A
:102F100000060F91089561E00C94781784EF95E016
:102F20000C9452171092B30681E08093B106109270
:102F3000B00661E082E10E94DD1A61E083E10E9457
:102F4000DD1AE9EBF0E080818E7F808380818D7FC8
:102F500080838CE08093B80085E48093BC00089562
:102F60000F93413208F046C09091B3069111FCCF07
:102F700092E09093B3060093B1069FEF90934606BC
:102F800010928B0640938A06FB016CE876E0DB0129
:102F90009A2F961B941718F491919D93F9CF109244
:102FA000B2069091B206880F892B8093B206809169
:102FB000B006813041F41092B0068091B206809341
:102FC000BB0085EC01C085EE8093BC00222321F07C
:102FD0008091B3068230E1F3809146068F3F61F025
:102FE00080914606803251F080914606803341F44C
:102FF00083E007C081E005C080E003C082E001C03B
:1030000084E00F910895613298F42091B306243042
:1030100089F460936806FC018AE696E0DC012A2FB9
:10302000281B261718F421912D93F9CF80E00895DD
:1030300081E0089582E0089585ED8093BC00809141
:10304000BC0084FDFCCF1092B306089585EC8093FC
:10305000BC001092B30608951F920F920FB60F9204
:1030600011242F933F934F935F936F937F938F938D
:103070009F93AF93BF93EF93FF938091B900887FA5
:10308000803609F49CC068F5883209F45BC090F47E
:10309000803109F454C038F4882309F4F5C088302D
:1030A00009F44DC0F5C0883109F44CC0803209F4F0
:1030B0005DC0EEC0803409F468C048F4803309F480
:1030C00055C0883309F0E4C080934606A8C0803517
:1030D00009F44FC0883509F45DC0883409F0D8C0C0
:1030E000D5C0883909F4C6C0A8F4883709F467C088
:1030F00038F4883609F463C0803709F460C0C8C06A
:10310000883809F4B7C0803909F45FC0803809F005
:10311000BFC05BC0803B09F485C038F4803A09F435
:1031200066C0883A09F47EC0B3C0803C09F4A6C0EA
:10313000883C09F4A3C0883B09F489C0A9C08091E8
:10314000B20610C090918B0680918A06981770F590
:10315000E0918B0681E08E0F80938B06F0E0E457C0
:10316000F94F80818093BB0085EC85C08093460633
:103170008DC0E0918B0681E08E0F80938B0680914D
:10318000BB00F0E0E457F94F808390918B0680916B
:103190008A066DC0E0918B0681E08E0F80938B06CE
:1031A0008091BB00F0E0E457F94F80838091B10635
:1031B00081116CC081E08093B00684EA60C083E036
:1031C0008093B30610924706CFCF80914706803296
:1031D00008F050C0E091470681E08E0F80934706CB
:1031E0008091BB00F0E0E85BF94F8083BDCF809118
:1031F0004706803230F4E0914706F0E0E85BF94F93
:1032000010820E941C186091470670E0E091AC06A5
:10321000F091AD0688E496E00995109247060E9469
:10322000261836C084E08093B30610926906109287
:103230006806E091AE06F091AF06099580916806A8
:10324000811105C081E08093680610926A06E091C2
:10325000690681E08E0F80936906F0E0E659F94F28
:1032600080818093BB0090916906809168069817D1
:1032700008F47ACF85E88093BC000AC085EC80937F
:10328000BC001092B30604C0109246060E941C189F
:10329000FF91EF91BF91AF919F918F917F916F912E
:1032A0005F914F913F912F910F900FBE0F901F9004
:1032B00018951F920F920FB60F9211242F933F93E0
:1032C0008F939F93AF93BF938091B5069091B6066D
:1032D000A091B706B091B8063091B40623E0230F51
:1032E0002D3720F40196A11DB11D05C026E8230F3E
:1032F0000296A11DB11D2093B4068093B50690934C
:10330000B606A093B706B093B8068091B90690911F
:10331000BA06A091BB06B091BC060196A11DB11DD5
:103320008093B9069093BA06A093BB06B093BC06EF
:10333000BF91AF919F918F913F912F910F900FBEB1
:103340000F901F9018953FB7F8948091B90690910F
:10335000BA06A091BB06B091BC0626B5A89B05C0D5
:103360002F3F19F00196A11DB11D3FBF6627782F91
:10337000892F9A2F620F711D811D911D42E0660FEA
:10338000771F881F991F4A95D1F70895789484B5BF
:10339000826084BD84B5816084BD85B5826085BD51
:1033A00085B5816085BDEEE6F0E080818160808337
:1033B000E1E8F0E01082808182608083808181601A
:1033C0008083E0E8F0E0808181608083E1EBF0E0E1
:1033D000808184608083E0EBF0E080818160808385
:1033E000EAE7F0E08081846080838081826080836E
:1033F0008081816080838081806880831092C10099
:1034000008958230E8F4E82FF0E0EE0FFF1FE35458
:10341000F94F71836083813041F0809169008C7F26
:10342000842B80936900E89A089580916900440F85
:10343000551F440F551F837F842B80936900E99AA1
:1034400008951F920F920FB60F9211242F933F935E
:103450004F935F936F937F938F939F93AF93BF939C
:10346000EF93FF938091BD069091BE06892B29F0C2
:10347000E091BD06F091BE060995FF91EF91BF91D5
:10348000AF919F918F917F916F915F914F913F91FC
:103490002F910F900FBE0F901F9018951F920F92B3
:1034A0000FB60F9211242F933F934F935F936F9317
:1034B0007F938F939F93AF93BF93EF93FF938091ED
:1034C000BF069091C006892B29F0E091BF06F091CC
:1034D000C0060995FF91EF91BF91AF919F918F9198
:1034E0007F916F915F914F913F912F910F900FBE00
:1034F0000F901F901895833081F028F4813099F057
:103500008230A1F008958730A9F08830B9F0843076
:10351000D1F4809180008F7D03C0809180008F77EF
:1035200080938000089584B58F7702C084B58F7D25
:1035300084BD08958091B0008F7703C08091B00062
:103540008F7D8093B0000895CF93DF9390E0FC01CE
:10355000EF57F94F2491FC01EB56F94F84918823E2
:1035600049F190E0880F991FFC01ED54F94FA591A6
:10357000B4918755994FFC01C591D4919FB76111C2
:1035800008C0F8948C91209582238C9388818223A3
:103590000AC0623051F4F8948C91322F3095832315
:1035A0008C938881822B888304C0F8948C91822B21
:1035B0008C939FBFDF91CF9108950F931F93CF936B
:1035C000DF931F92CDB7DEB7282F30E0F901E35922
:1035D000F94F8491F901EF57F94F1491F901EB5626
:1035E000F94F04910023C9F0882321F069830E94D8
:1035F0007B1A6981E02FF0E0EE0FFF1FE755F94FCE
:10360000A591B4919FB7F8948C91611103C0109566
:10361000812301C0812B8C939FBF0F90DF91CF91AD
:103620001F910F9108958E3008F08E508770209171
:10363000140190E4299F90011124822B80937C0037
:1036400080917A00806480937A0080917A0086FD70
:10365000FCCF809178002091790090E0922B089522
:103660001F920F920FB60F9211242F938F939F9357
:10367000EF93FF93E091D106F091D2068081E09123
:10368000D706F091D80682FD12C090818091DA06AB
:103690008F5F8F732091DB06821751F0E091DA067D
:1036A000F0E0EF53F94F958F8093DA0601C08081E7
:1036B000FF91EF919F918F912F910F900FBE0F90DF
:1036C0001F9018951F920F920FB60F9211242F93EF
:1036D0003F934F935F936F937F938F939F93AF939A
:1036E000BF93EF93FF9381EC96E00E949C1EFF91A5
:1036F000EF91BF91AF919F918F917F916F915F916A
:103700004F913F912F910F900FBE0F901F901895E2
:103710001092C4061092C30688EE93E0A0E0B0E0D9
:103720008093C5069093C606A093C706B093C806BB
:103730008FE991E09093C2068093C10685EC90E0FA
:103740009093CE068093CD0684EC90E09093D006C3
:103750008093CF0680EC90E09093D2068093D106C0
:1037600081EC90E09093D4068093D30682EC90E0B5
:103770009093D6068093D50686EC90E09093D80679
:103780008093D7061092DA061092DB061092DC06C0
:103790001092DD060895CF92DF92EF92FF920F9381
:1037A0001F93CF93DF936C017A01EB01E60EF71EB6
:1037B00000E010E0CE15DF0561F06991D601ED91D2
:1037C000FC910190F081E02DC6010995080F191FA9
:1037D000F1CFC801DF91CF911F910F91FF90EF9032
:1037E000DF90CF9008956115710581F0DB010D9098
:1037F0000020E9F7AD0141505109461B570BDC0190
:10380000ED91FC910280F381E02D099480E090E03D
:103810000895EF92FF920F931F93CF93DF938C0144
:10382000FB01C0E0D0E064917F018FEFE81AF80A55
:10383000662361F0D801ED91FC910190F081E02DBB
:10384000C8010995C80FD91FF701EDCFCE01DF914F
:10385000CF911F910F91FF90EF9008950C94F31B5F
:10386000DC01ED91FC910190F081E02D09946AE872
:1038700071E00C94F31B0F931F93CF93DF93EC0134
:103880000E94091C8C01CE010E94371C800F911FE1
:10389000DF91CF911F910F9108958F929F92AF92D8
:1038A000BF92CF92DF92EF92FF920F931F93CF932D
:1038B000DF93CDB7DEB7A1970FB6F894DEBF0FBE8A
:1038C000CDBF7C01C42EE52FCB01D22E19A221E061
:1038D0002D1510F02AE0D22E8E010F5D1F4F8D2C7A
:1038E000912CA12CB12C6C2D7E2FA50194010E944E
:1038F0006E238C2DD29E80191124015011098A301B
:1039000014F4805D01C0895CF801808321153105C4
:103910004105510521F0C22EE32FCA01E4CFB801C1
:10392000C7010E94F31BA1960FB6F894DEBF0FBE2D
:10393000CDBFDF91CF911F910F91FF90EF90DF905E
:10394000CF90BF90AF909F908F900895CF92DF92CD
:10395000EF92FF920F931F93CF93DF93EC016A01D5
:103960007B012115310579F4E881F9810190F0811D
:10397000E02D642FDF91CF911F910F91FF90EF9079
:10398000DF90CF9009942A303105E9F477FF1AC00F
:103990006DE20E94301C8C0144275527BA014C1956
:1039A0005D096E097F092AE0CE010E944D1C800F3F
:1039B000911FDF91CF911F910F91FF90EF90DF90BA
:1039C000CF9008952AE0B701A601CE01DF91CF91F3
:1039D0001F910F91FF90EF90DF90CF900C944D1CB2
:1039E0009A01AB01662757FD6095762F0C94A61CB3
:1039F0000F931F93CF93DF93EC019A01AB016627DE
:103A000057FD6095762F0E94A61C8C01CE010E9466
:103A1000371C800F911FDF91CF911F910F91089557
:103A20002115310541F4DC01ED91FC910190F0810B
:103A3000E02D642F09940C944D1C9A01AB0160E0B9
:103A400070E00C94101D0F931F93CF93DF93EC0144
:103A50009A01AB0160E070E00E94101D8C01CE0164
:103A60000E94371C800F911FDF91CF911F910F9102
:103A700008954F925F926F927F928F929F92AF9232
:103A8000BF92CF92DF92EF92FF920F931F93CF934B
:103A9000DF93EC016A017B01B22E9A01AB01C701F1
:103AA000B6010E941823882319F06DE871E027C041
:103AB00026013701E89477F82FEF3FEF4FE75FE7F4
:103AC000C301B2010E94182381110DC02FEF3FEFF7
:103AD0004FE75FE7C301B2010E940B2018161CF4E8
:103AE00061E971E00CC02FEF3FEF4FE75FE4C701E2
:103AF000B6010E94B0211816ACF465E971E0CE0160
:103B0000DF91CF911F910F91FF90EF90DF90CF90B9
:103B1000BF90AF909F908F907F906F905F904F90ED
:103B20000C94F31B2FEF3FEF4FE75FECC701B6019B
:103B30000E940B2087FDE1CF20E030E0A901C70102
:103B4000B6010E940B2087FF0AC06DE2CE010E94E1
:103B5000301C8C01F7FAF094F7F8F09402C000E002
:103B600010E0A12C60E070E080E09FE3AB1441F036
:103B700020E030E040E251E40E940F20A394F6CF11
:103B80009B01AC01C701B6010E94A71F6B017C011C
:103B90000E94AD202B013C010E94D9209B01AC0169
:103BA000C701B6010E94A61F6B017C012AE0B30188
:103BB000A201CE010E944D1C080F191FBB2039F035
:103BC00069E971E0CE010E94F31B080F191F7B2CDD
:103BD000772041F120E030E040E251E4C701B60136
:103BE0000E9469226B017C010E94A8204B01AA243B
:103BF00097FCA094BA2C2AE030E0B501A401CE01D4
:103C00000E94A61C080F191FC501B4010E94DB20E9
:103C10009B01AC01C701B6010E94A61F6B017C018C
:103C20007A94D6CFC801DF91CF911F910F91FF9069
:103C3000EF90DF90CF90BF90AF909F908F907F904C
:103C40006F905F904F9008950C94391D0E94CF2380
:103C50004F925F926F927F92AF92BF92CF92DF921C
:103C6000EF92FF920F931F93CF93DF93CDB7DEB701
:103C700029013A01621B730B840B950B29893A8940
:103C80004B895C892A193B094C095D09298B3A8BC0
:103C90004B8B5C8B9B01AC0169897A898B899C89F0
:103CA0000E942A23E418F50806091709A8019701BC
:103CB0000E9490232A0D3B1D4C1D5D1DCA01B901B8
:103CC000DF91CF911F910F91FF90EF90DF90CF90F8
:103CD000BF90AF907F906F905F904F900895FC01E0
:103CE000818D228D90E0805C9F4F821B91098F73A4
:103CF00099270895FC01918D828D981731F0828D5E
:103D0000E80FF11D858D90E008958FEF9FEF0895E6
:103D1000FC01918D828D981761F0828DDF01A80FD3
:103D2000B11D5D968C91928D9F5F9F73928F90E0F5
:103D300008958FEF9FEF0895FC01848DDF01A80F98
:103D4000B11DA35ABF4F2C91848D90E001968F73C3
:103D50009927848FA689B7892C93A089B1898C91E2
:103D600080648C93938D848D981306C00288F389A8
:103D7000E02D80818F7D80830895CF93DF93EC01C8
:103D8000888D8823C9F0EA89FB89808185FD05C07B
:103D9000A889B9898C9186FD0FC00FB607FCF5CFB5
:103DA000808185FFF2CFA889B9898C9185FFEDCFFD
:103DB000CE010E949C1EE7CFDF91CF910895CF9254
:103DC000DF92FF920F931F93CF93DF931F92CDB794
:103DD000DEB76C0181E0D60158968C9358975B96BC
:103DE0009C915B975C968C915C97981307C050965A
:103DF000ED91FC915197808185FD2EC0F601038DD8
:103E000010E00F5F1F4F0F731127F02EF601848D06
:103E1000F81211C00FB607FCF9CFD6015096ED91FC
:103E2000FC915197808185FFF1CFC60169830E9483
:103E30009C1E6981EBCF838DE80FF11DE35AFF4F84
:103E40006083D6015B960C935B975296ED91FC9143
:103E50005397808180620CC0D6015696ED91FC91FB
:103E6000579760835096ED91FC91519780818064C3
:103E7000808381E090E00F90DF91CF911F910F91AF
:103E8000FF90DF90CF900895BF92CF92DF92EF9294
:103E9000FF92CF93DF93EC016A017B01B22EE88998
:103EA000F98982E08083411581EE5807610571052B
:103EB000A1F060E079E08DE390E0A70196010E9417
:103EC0006E2321503109410951095695479537957F
:103ED0002795211580E1380798F0E889F989108243
:103EE00060E874E88EE190E0A70196010E946E23DD
:103EF0002150310941095109569547953795279524
:103F0000EC85FD853083EE85FF852083188EEC8956
:103F1000FD89B082EA89FB89808180618083EA899A
:103F2000FB89808188608083EA89FB898081806841
:103F30008083EA89FB8980818F7D8083DF91CF91A7
:103F4000FF90EF90DF90CF90BF9008955058BB271F
:103F5000AA270ED0CBC1BCD130F0C1D120F031F4B2
:103F60009F3F11F41EF48CC10EF4E095E7FB82C173
:103F7000E92FCDD180F3BA1762077307840795073D
:103F800018F071F49EF5E5C10EF4E0950B2EBA2FF2
:103F9000A02D0B01B90190010C01CA01A00111244F
:103FA000FF27591B99F0593F50F4503E68F11A16FB
:103FB000F040A22F232F342F4427585FF3CF46958C
:103FC00037952795A795F0405395C9F77EF41F16AE
:103FD000BA0B620B730B840BBAF09150A1F0FF0F78
:103FE000BB1F661F771F881FC2F70EC0BA0F621F64
:103FF000731F841F48F4879577956795B795F79554
:104000009E3F08F0B3CF9395880F08F09927EE0FE5
:104010009795879508950AD108F481E008950CD00A
:1040200065C15DD140F054D130F021F45F3F19F00B
:1040300021C151118FC124C16AD198F39923C9F3C9
:104040005523B1F3951B550BBB27AA27621773079E
:10405000840738F09F5F5F4F220F331F441FAA1F52
:10406000A9F333D00E2E3AF0E0E830D09150504012
:10407000E695001CCAF729D0FE2F27D0660F771FC0
:10408000881FBB1F261737074807AB07B0E809F0A2
:10409000BB0B802DBF01FF2793585F4F2AF09E3F37
:1040A000510568F0E7C056C15F3FECF3983EDCF382
:1040B000869577956795B795F7959F5FC9F7880FB0
:1040C000911D9695879597F90895E1E0660F771F02
:1040D000881FBB1F621773078407BA0720F0621B93
:1040E000730B840BBA0BEE1F88F7E095089519F453
:1040F0000EF0C0C02EC1C4C012D1C8F39638C0F7AC
:1041000007F80F92E8942BE33AEA48EB5FE7EFD128
:104110000F920F920F924DB75EB70F92A7D1E8E6BC
:10412000F0E0B1D04F915F91EF91FF91E595EE1FD7
:10413000FF1F49F0FE57E0684427EE0F441FFA9531
:10414000E1F74195550B19D10F9007FE0DC1089568
:1041500004D06894B111FEC00895E1D088F09F5753
:1041600090F0B92F9927B751A0F0D1F0660F771FC3
:10417000881F991F1AF0BA95C9F712C0B13081F0A3
:10418000E8D0B1E00895E5C0672F782F8827B85FA1
:1041900039F0B93FCCF3869577956795B395D9F704
:1041A0003EF490958095709561957F4F8F4F9F4F0E
:1041B0000895E89409C097FB3EF49095809570951A
:1041C00061957F4F8F4F9F4F9923A9F0F92F96E963
:1041D000BB279395F695879577956795B795F111D8
:1041E000F8CFFAF4BB0F11F460FF1BC06F5F7F4F75
:1041F0008F4F9F4F16C0882311F096E911C0772387
:1042000021F09EE8872F762F05C0662371F096E88F
:10421000862F70E060E02AF09A95660F771F881F5E
:10422000DAF7880F9695879597F90895990F000802
:10423000550FAA0BE0E8FEEF16161706E807F90778
:10424000C0F012161306E407F50798F0621B730B13
:10425000840B950B39F40A2661F0232B242B252B94
:1042600021F408950A2609F4A140A6958FEF811D37
:10427000811D089597F99F6780E870E060E00895D8
:104280009FEF80EC0895DF93CF931F930F93FF92DE
:10429000EF92DF927B018C01689405C0DA2EEF016A
:1042A00024D1FE01E894A591259135914591559130
:1042B000AEF3EF015DDEFE019701A801DA9479F714
:1042C000DF90EF90FF900F911F91CF91DF910895B4
:1042D00000240A94161617061806090608950024E5
:1042E0000A9412161306140605060895092E03945F
:1042F000000C11F4882352F0BB0F40F4BF2B11F4D3
:1043000060FF04C06F5F7F4F8F4F9F4F089557FD31
:104310009058440F551F59F05F3F71F04795880F33
:1043200097FB991F61F09F3F79F0879508951216CA
:1043300013061406551FF2CF4695F1DF08C0161676
:1043400017061806991FF1CF869571056105089427
:104350000895E894BB2766277727CB0197F908953E
:1043600065DF08F48FEF08959B01AC0160E070E019
:1043700080E89FE354CE7ECF5FC1D1DFE8F399237D
:10438000D9F3940F511DBBF39150504094F059F064
:10439000882332F0660F771F881F91505040C1F775
:1043A0009E3F510544F7880F911D9695879597F983
:1043B00008955F3FACF0983E9CF0BB2786957795BB
:1043C0006795B79508F4B1609395C1F7BB0F58F79F
:1043D00011F460FFE8CF6F5F7F4F8F4F9F4FE3CFA8
:1043E000B9CF0EF029C14CCF689444CF98DFC8F301
:1043F0009923D1F3C6F3DF93CF931F930F93FF92CB
:10440000C92FDD2788232AF02197660F771F881F81
:10441000DAF720E030E040E85FEB9FE3883920F0F6
:10442000803E30F021968F7792DDE0E9F0E003C026
:104430008EDDEDEBF0E027DF8B01BE01EC01FB2E02
:104440006F5771097595771F880B990BB4DE28E1BA
:1044500032E741E35FE349D0AF2D9801AE01FF9011
:104460000F911F91CF91DF9183DD40CFFA01DC01E5
:10447000AA0FBB1F9B01AC01BF5728F4222733278B
:10448000442750781FC0B75188F4AB2F00244695BD
:1044900037952795011CA395D2F3002069F0220FD0
:1044A000331F441FB395DAF30DD050CD6130710541
:1044B000A0E88A07B94630F49B01AC01662777274C
:1044C00088279078309621F020833183428353836C
:1044D00008950BD00BCFFCDE28F001DF18F09523F8
:1044E00009F0C8CECDCE112435CF11DFA0F3959FB2
:1044F000D1F3950F50E0551F629FF001729FBB27CB
:10450000F00DB11D639FAA27F00DB11DAA1F649F76
:104510006627B00DA11D661F829F2227B00DA11D29
:10452000621F739FB00DA11D621F839FA00D611DAF
:10453000221F749F3327A00D611D231F849F600DD0
:10454000211D822F762F6A2F11249F5750408AF009
:10455000E1F088234AF0EE0FFF1FBB1F661F771F95
:10456000881F91505040A9F79E3F510570F082CEB0
:10457000F1CE5F3FECF3983EDCF386957795679537
:10458000B795F795E7959F5FC1F7FE2B880F911DB3
:104590009695879597F90895FA01EE0FFF1F3096CB
:1045A0002105310599F16115710561F48038BFE38A
:1045B0009B0749F168949038810561F08038BFEF1E
:1045C0009B0741F0992342F5FF3FE10531052105A5
:1045D00011F1E8940894E795D901AA2329F4AB2FA7
:1045E000BE2FF85FD0F310C0FF5F70F4A695E0F720
:1045F000F73950F019F0FF3A38F49F779F930CD0B9
:104600000F9007FC905808953EF03ACE60E070E0BD
:1046100080E89FE308954FE79F775F934F933F9321
:104620002F93E4DE2F913F914F915F9152DF64CD44
:10463000FDDD880B990B08959F3F31F0915020F4D8
:10464000879577956795B795880F911D969587956E
:1046500097F90895DB018F939F930E94AF23BF9139
:10466000AF91A29F800D911DA39F900DB29F900DC1
:1046700011240895991B79E004C0991F961708F03A
:10468000961B881F7A95C9F780950895AA1BBB1BB6
:1046900051E107C0AA1FBB1FA617B70710F0A61B42
:1046A000B70B881F991F5A95A9F780959095BC0163
:1046B000CD01089597FB072E16F4009407D077FDDF
:1046C00009D00E94462307FC05D03EF490958195C1
:1046D0009F4F0895709561957F4F0895A1E21A2E1E
:1046E000AA1BBB1BFD010DC0AA1FBB1FEE1FFF1F96
:1046F000A217B307E407F50720F0A21BB30BE40BE6
:10470000F50B661F771F881F991F1A9469F760952C
:104710007095809590959B01AC01BD01CF010895E6
:10472000052E97FB1EF400940E94A72357FD07D087
:104730000E946E2307FC03D04EF40C94A7235095DF
:104740004095309521953F4F4F4F5F4F089590957D
:104750008095709561957F4F8F4F9F4F08950E9470
:10476000C023A59F900DB49F900DA49F800D911D17
:1047700011240895EE0FFF1F0590F491E02D099488
:10478000A29FB001B39FC001A39F700D811D112492
:10479000911DB29F700D811D1124911D089581E01E
:1047A00090E0F8940C94EA23F999FECF92BD81BD74
:1047B000F89A992780B50895262FF999FECF1FBA48
:1047C00092BD81BD20BD0FB6F894FA9AF99A0FBE3A
:0847D00001960895F894FFCF53
:1047D80001000000000103070F1F3F7F0080C0E0B9
:1047E800F0F8FCFE01000000000906CB1B261E8C19
:1047F800039204A9044304BF04F404120500000052
:10480800000906CB1B250A8C03EA08B2074304BF3C
:1048180004F404120557454C434F4D4520544F208E
:104828004A4D2053434F4F544552004F4B00566F4B
:104838006C74616765202020202054656D700070BD
:104848006F74200053455455500000000000231792
:10485800F616CB16D316E616F5160D0A006E616E1F
:1048680000696E66006F7666002E0000000000DFAB
:0C4878001ECB1B6F1E881E7A1EBD1E008A
:00000001FF
